:020000040800F2
:100000000000012085150008191500081F150008BB
:10001000251500082B150008311500080000000008
:10002000000000000000000000000000371500087C
:100030004515000800000000531500080D0F0008CA
:10004000D5150008D5150008D5150008D5150008E8
:10005000D5150008D5150008D5150008D5150008D8
:10006000D5150008D5150008D5150008D5150008C8
:10007000D5150008D5150008D5150008D5150008B8
:10008000D5150008D5150008D5150008000000009A
:10009000000000000000000000000000D51500086E
:1000A000D5150008D5150008D5150008D515000888
:1000B000D5150008D5150008D5150008D515000878
:1000C000D5150008D5150008D5150008D515000868
:1000D000D5150008BD120008D91200080000000064
:1000E000D5150008D5150008D5150008000000003A
:1000F000000000000000000000000000D51500080E
:1001000000000000D5150008D5150008D515000819
:1001100000000000000000000000000000000000DF
:10012000D5150008D5150008D5150008D515000807
:10013000D5150008000000000000000000000000CD
:10014000000000000000000000000000D5150008BD
:10015000D5150008D5150008D5150008F5120008BA
:10016000D5150008D51500080000000000000000AB
:10017000000000000000000000000000000000007F
:1001800000000000D515000800000000000000007D
:04019000D515000879
:1001980010B5054C237833B9044B13B10448AFF3B9
:1001A80000800123237010BD000000200000000023
:1001B8002016000808B5034B1BB103490348AFF3E9
:1001C800008008BD00000000040000202016000880
:1001D80053B94AB9002908BF00281CBF4FF0FF31A6
:1001E8004FF0FF3000F074B9ADF1080C6DE904CEA2
:1001F80000F006F8DDF804E0DDE9022304B07047FA
:100208002DE9F047089D04468E46002B4DD18A42C1
:10021800944669D9B2FA82F252B101FA02F3C2F1F4
:10022800200120FA01F10CFA02FC41EA030E944085
:100238004FEA1C48210CBEFBF8F61FFA8CF708FBA6
:1002480016E341EA034306FB07F199420AD91CEB7E
:10025800030306F1FF3080F01F81994240F21C81B0
:10026800023E63445B1AA4B2B3FBF8F008FB1033F8
:1002780044EA034400FB07F7A7420AD91CEB04042D
:1002880000F1FF3380F00A81A74240F207816444FD
:10029800023840EA0640E41B00261DB1D440002382
:1002A800C5E900433146BDE8F0878B4209D9002DE6
:1002B80000F0EF800026C5E9000130463146BDE870
:1002C800F087B3FA83F6002E4AD18B4202D38242DA
:1002D80000F2F980841A61EB030301209E46002D89
:1002E800E0D0C5E9004EDDE702B9FFDEB2FA82F2DE
:1002F800002A40F09280A1EB0C014FEA1C471FFA3C
:100308008CFE0126200CB1FBF7F307FB131140EA22
:1003180001410EFB03F0884208D91CEB010103F1EF
:10032800FF3802D2884200F2CB804346091AA4B2B1
:10033800B1FBF7F007FB101144EA01440EFB00FE85
:10034800A64508D91CEB040400F1FF3102D2A645EA
:1003580000F2BB800846A4EB0E0440EA03409CE789
:10036800C6F12007B34022FA07FC4CEA030C20FA36
:1003780007F401FA06F31C43F9404FEA1C4900FA56
:1003880006F3B1FBF9F8200C1FFA8CFE09FB1811D3
:1003980040EA014108FB0EF0884202FA06F20BD946
:1003A8001CEB010108F1FF3A80F08880884240F296
:1003B8008580A8F102086144091AA4B2B1FBF9F0DA
:1003C80009FB101144EA014100FB0EFE8E4508D9D5
:1003D8001CEB010100F1FF346CD28E456AD902385A
:1003E800614440EA0840A0FB0294A1EB0E01A1423F
:1003F800C846A64656D353D05DB1B3EB080261EBAD
:100408000E0101FA07F722FA06F3F1401F43C5E986
:10041800007100263146BDE8F087C2F12003D840BC
:100428000CFA02FC21FA03F3914001434FEA1C47FE
:100438001FFA8CFEB3FBF7F007FB10360B0C43EAF0
:10044800064300FB0EF69E4204FA02F408D91CEBA0
:10045800030300F1FF382FD29E422DD9023863449E
:100468009B1B89B2B3FBF7F607FB163341EA03413E
:1004780006FB0EF38B4208D91CEB010106F1FF388D
:1004880016D28B4214D9023E6144C91A46EA004684
:1004980038E72E46284605E70646E3E61846F8E616
:1004A8004B45A9D2B9EB020864EB0C0E0138A3E75F
:1004B8004646EAE7204694E74046D1E7D0467BE740
:1004C800023B614432E7304609E76444023842E7B8
:1004D800704700BF80B582B000AF0123FB7106E012
:1004E800FB79184600F00CF8FB790133FB71FB79B6
:1004F800072BF5D900BF00BF0837BD4680BD0000F7
:1005080080B483B000AF0346FB7100E000BF244B0A
:10051800DB681B0C03F00103012BF7D0204B1B6990
:10052800DB0F03F00103012B05D11D4B1D4A5A6057
:100538001B4B1D4A5A601A4B1B69194A23F0780352
:100548001361174B1B69FA79D2001146144A0B4301
:100558001361134B1B69124A43F002031361104BDA
:100568001B690F4A43F48033136100E000BF0C4B52
:10057800DB681B0C03F00103012BF7D0084BDB6889
:10058800074A43F00103D360054B1B69044A23F073
:100598000203136100BF0C37BD465DF8047B70474A
:1005A800003C024023016745AB89EFCD80B487B09A
:1005B80000AFF860B9601346FB8000E000BF2A4B2B
:1005C800DB681B0C03F00103012BF7D0264B1B69DA
:1005D800DB0F03F00103012B05D1234B234A5A609B
:1005E800214B234A5A60204B1B691F4A23F440734E
:1005F80013611D4B1B691C4A43F4807313611A4B2A
:100608001B69194A43F0010313610023FB821BE0B5
:10061800FB8A5B00BA681A44FB6812881A80FB6878
:100628000233FB6000E000BF0F4BDB681B0C03F0DC
:100638000103012BF7D00C4BDB680B4A43F0010395
:10064800D360FB8A0133FB82FA8AFB889A42DFD3A4
:10065800054B1B69044A23F00103136100BF1C37D3
:10066800BD465DF8047B7047003C024023016745A6
:10067800AB89EFCD80B483B000AF0346FB710B4666
:10068800BB7113467B71FB79022B36D0022B4CDCF5
:10069800002B02D0012B18D047E0274B1B68BA79F2
:1006A8005200032101FA02F2D2431146224A0B40BA
:1006B8001360214B1B687979BA79520001FA02F26A
:1006C80011461D4A0B4313602FE01C4B1B68BA7977
:1006D8005200032101FA02F2D2431146174A0B4095
:1006E8001360164B1B687979BA79520001FA02F245
:1006F8001146124A0B43136017E0114B1B68BA7975
:100708005200032101FA02F2D24311460C4A0B406F
:1007180013600B4B1B687979BA79520001FA02F21F
:100728001146074A0B43136000BF00BF0C37BD4694
:100738005DF8047B704700BF0000024000040240DF
:100748000008024080B483B000AF0346FB710B463B
:10075800BB7113467B717B79012B2AD1FB79022B64
:100768001CD0022B57DC002B02D0012B0BD052E0FF
:100778002C4B5B68BA79012101FA02F21146294A29
:100788000B43536047E0284B5B68BA79012101FAB3
:1007980002F21146244A0B4353603CE0234B5B684A
:1007A800BA79012101FA02F21146204A0B4353603B
:1007B80031E07B79002B2DD1FB79022B1ED0022B47
:1007C80029DC002B02D0012B0CD024E0154B5B68F0
:1007D800BA79012101FA02F2D2431146114A0B40BB
:1007E800536018E0104B5B68BA79012101FA02F2F4
:1007F800D24311460C4A0B4053600CE00B4B5B682C
:10080800BA79012101FA02F2D2431146074A0B4094
:10081800536000E000BF00BF0C37BD465DF8047BA5
:10082800704700BF00000240000402400008024078
:1008380080B483B000AF0346FB710B46BB7113460F
:100848007B71FB79022B36D0022B4CDC002B02D0BB
:10085800012B18D047E0274B9B68BA795200032137
:1008680001FA02F2D2431146224A0B409360214B0F
:100878009B687979BA79520001FA02F211461D4A49
:100888000B4393602FE01C4B9B68BA7952000321FD
:1008980001FA02F2D2431146174A0B409360164BF5
:1008A8009B687979BA79520001FA02F21146124A24
:1008B8000B43936017E0114B9B68BA7952000321F0
:1008C80001FA02F2D24311460C4A0B4093600B4BDB
:1008D8009B687979BA79520001FA02F21146074AFF
:1008E8000B43936000BF00BF0C37BD465DF8047B27
:1008F800704700BF000002400004024000080240A8
:1009080080B483B000AF0346FB710B46BB7113463E
:100918007B71FB79022B36D0022B4CDC002B02D0EA
:10092800012B18D047E0274BDB68BA795200032126
:1009380001FA02F2D2431146224A0B40D360214BFE
:10094800DB687979BA79520001FA02F211461D4A38
:100958000B43D3602FE01C4BDB68BA7952000321AC
:1009680001FA02F2D2431146174A0B40D360164BE4
:10097800DB687979BA79520001FA02F21146124A13
:100988000B43D36017E0114BDB68BA79520003219F
:1009980001FA02F2D24311460C4A0B40D3600B4BCA
:1009A800DB687979BA79520001FA02F21146074AEE
:1009B8000B43D36000BF00BF0C37BD465DF8047B16
:1009C800704700BF000002400004024000080240D7
:1009D80080B483B000AF0346FB710B46BB7113466E
:1009E8007B717B79012B2AD1FB79022B1CD0022B3E
:1009F80057DC002B02D0012B0BD052E02C4B5B694B
:100A0800BA79012101FA02F21146294A0B435361CE
:100A180047E0284B5B69BA79012101FA02F21146D5
:100A2800244A0B4353613CE0234B5B69BA790121AB
:100A380001FA02F21146204A0B43536131E07B79F7
:100A4800002B2DD1FB79022B1ED0022B29DC002B89
:100A580002D0012B0CD024E0154B5B69BA79012137
:100A680001FA02F2D2431146114A0B40536118E0D1
:100A7800104B5B69BA79012101FA02F2D24311469F
:100A88000C4A0B4053610CE00B4B5B69BA790121AE
:100A980001FA02F2D2431146074A0B40536100E0C3
:100AA80000BF00BF0C37BD465DF8047B704700BF30
:100AB80000000240000402400008024080B483B0F5
:100AC80000AF0346FB710B46BB7113467B71BB79C4
:100AD800072B1AD8FB79002B38D11F4B1B6ABA7920
:100AE80092000F2101FA02F2D24311461A4A0B4032
:100AF8001362194B1B6A7979BA79920001FA02F2EA
:100B08001146154A0B43136220E0BB79082B1CD908
:100B1800FB79002B1AD1104B5B6ABA79083A92001C
:100B28000F2101FA02F2D24311460B4A0B405362DD
:100B3800094B5B6A7979BA79083A920001FA02F2AC
:100B48001146054A0B43536200E000BF00BF0C3753
:100B5800BD465DF8047B70470000024080B582B056
:100B680000AF78607B6818787B6859787B689B78D9
:100B78001A46FFF77FFD7B6818787B6859787B6891
:100B8800DB781A46FFF7DEFD7B6818787B685978B2
:100B98007B681B791A46FFF74BFE7B6818787B68E1
:100BA80059787B685B791A46FFF7AAFE7B68187844
:100BB8007B6859787B689B791A46FFF77FFF00BFEF
:100BC80018460837BD4680BD80B485B000AF0346DF
:100BD800FB710023FB73FB792F2B06D9FB79392B8B
:100BE80003D8FB79303BFB7308E0FB79402B05D930
:100BF800FB79462B02D8FB79373BFB73FB7B184606
:100C08001437BD465DF8047B7047000080B586B098
:100C180000AF786000233B617B6801331B7818467E
:100C2800FFF7D2FF0346FB737B6802331B78184635
:100C3800FFF7CAFF0346BB73FB7B1B015AB297F948
:100C48000E3013435BB27B737B6803331B78184603
:100C5800FFF7BAFF03463B737B6804331B781846DB
:100C6800FFF7B2FF0346FB727B6805331B78184613
:100C7800FFF7AAFF0346BB727B6806331B7818464A
:100C8800FFF7A2FF03467B723B7B1B0343F0006226
:100C9800FB7A1B021A43BB7A1B011A437B7A134364
:100CA8003B610023FB7544E0FB7D9B0009337A68B8
:100CB80013441B781846FFF787FF03463B73FB7DF9
:100CC8009B000A337A6813441B781846FFF77CFFA9
:100CD8000346FB72FB7D9B000B337A6813441B7839
:100CE8001846FFF771FF0346BB72FB7D9B000C3370
:100CF8007A6813441B781846FFF766FF03467B7231
:100D08003B7B1B031AB2FB7A1B021BB213431AB2BA
:100D1800BB7A1B011BB213431AB27B7A1BB2134373
:100D28001AB2FB7D91B20C4A22F81310FB7D0133F5
:100D3800FB757B7B5B08DBB2FA7D9A42B4D37B7B85
:100D48005B08DBB29BB21A4603493869FFF72EFCF1
:100D580000BF1837BD4680BD1C00002080B500AF1D
:100D6800FFF7B8FB00BF80BD80B400AF114B1B6814
:100D7800104A43F4002313600E4B1B680D4A23F4FA
:100D8800802313600B4B9B680A4A43F0010393606E
:100D9800084B9B68074A23F002039360054B1B68C6
:100DA800044A43F48033136000BFBD465DF8047BFA
:100DB800704700BF0038024080B483B000AF78604D
:100DC80039607B68042B44D801A252F823F000BF95
:100DD800ED0D0008030E0008190E00082F0E00087C
:100DE800450E00081E4B1B6B01213A6801FA02F2FE
:100DF80011461B4A0B4313632CE0194B5B6B012113
:100E08003A6801FA02F21146154A0B43536321E08E
:100E1800134B1B6C01213A6801FA02F21146104A81
:100E28000B43136416E00E4B5B6C01213A6801FA20
:100E380002F211460A4A0B4353640BE0084B1B6D40
:100E480001213A6801FA02F21146054A0B4313657B
:100E580000E000BF00BF0C37BD465DF8047B70475B
:100E68000038024080B400AF0B4B1B680A4A23F0DD
:100E780001031360084B1B68074A43F0040313601F
:100E8800054B1B68044A43F00203136000BFBD46CC
:100E98005DF8047B704700BF10E000E080B400AF4D
:100EA800054B1B68044A23F00103136000BFBD46CD
:100EB8005DF8047B704700BF10E000E080B483B0A9
:100EC80000AF786039600C4B01221A700B4A3B68FE
:100ED80013600B4B00229A60094A7B685360084BE9
:100EE8001B68074A43F00103136000BF0C37BD4677
:100EF8005DF8047B704700BFE8000020E400002094
:100F080010E000E080B500AF0A4B1B78012B08D138
:100F1800084B00221A70084B1B68074A23F001038C
:100F28001360064B1B68002B02D0044B1B689847C4
:100F380000BF80BDE800002010E000E0E4000020D1
:100F48002DE9B04F90B000AFF863B9637A63FB6BDB
:100F58009B7A002B02D0012B75D0DAE0FB6B1B6863
:100F68000022BB62FA624FF000024FF00003D7E99B
:100F78000A4529468B00214643EA917321468A0097
:100F880091A1D1E90001FFF723F902460B46904BE6
:100F9800A3FB02235B091C01FB6B1B6800223B625D
:100FA8007A624FF000024FF00003D7E908894946FA
:100FB8008B00414643EA917341468A0082A1D1E9F8
:100FC8000001FFF705F902460B46814BA3FB02130C
:100FD8005B09642101FB03F3D31A1B0132337C4AFA
:100FE800A2FB03235B0903F0F0031C44FB6B1B68A3
:100FF8000022BB61FA614FF000024FF00003D7E90D
:10100800068949468B00414643EA917341468A0066
:101018006DA1D1E90001FFF7DBF802460B466C4BE6
:10102800A3FB02135B09642101FB03F3D31A1B0121
:101038003233674AA2FB03235B0903F00F03E2186C
:101048007B6B9A6065E0FB6B1B6800221C461546AB
:1010580023193B6145EB05037B61D7E904235AA1BA
:10106800D1E90001FFF7B4F802460B46584BA3FB41
:1010780002235B091C01FB6B1B6800229A469346FE
:101088001AEB0A03BB604BEB0B03FB60D7E90223A7
:101098004DA1D1E90001FFF79BF802460B464C4BE6
:1010A800A3FB02135B09642101FB03F3D31ADB00E2
:1010B8003233474AA2FB03235B095B0003F4F8734E
:1010C8001C44FB6B1B6800229846914618EB0803EA
:1010D8003B6049EB09037B60D7E900233AA1D1E9DA
:1010E8000001FFF775F802460B46394BA3FB0213C4
:1010F8005B09642101FB03F3D31ADB003233344A62
:10110800A2FB03235B0903F00703E2187B6B9A60D9
:1011180000BFFB6B9B7ADA03FB6B5B7A5B031A43BA
:10112800FB6B1B791B031A43FB6B9B799B021A43CE
:10113800FB6BDB795B0213431A467B6BDA60FB6B54
:101148001B7A022B14D0022B1FDC002B02D0012BA0
:1011580007D01AE07B6BDB6843F008027B6BDA6030
:1011680013E07B6BDB6843F004027B6BDA600CE016
:101178007B6BDB6843F008027B6BDA607B6BDB68B8
:1011880043F004027B6BDA6000BFFB6B5B791A03E8
:10119800BB6B1B78DB021A43BB6B9B785B021A4361
:1011A800BB6B5B789B021A43BB6BDB781B02134358
:1011B8001A467B6B1A617B6B00221A6000BF4037AE
:1011C800BD46BDE8B08F00BF00C2EB0B00000000B9
:1011D8001F85EB5180B483B000AF78607B68DB6813
:1011E80043F400527B68DA6000BF0C37BD465DF8F7
:1011F800047B704780B483B000AF78600B46FB7007
:10120800FA787B685A6000E000BF7B681B689B091E
:1012180003F00103002BF7D07B681B6823F0400222
:101228007B681A6000BF0C37BD465DF8047B7047C9
:1012380080B584B000AF786039600023FB730AE0A2
:10124800FB7B3A6813441B7819467868FFF7D2FF8E
:10125800FB7B0133FB73FB7B3A6813441B78002B41
:10126800EED100BF00BF1037BD4680BD80B485B049
:1012780000AF78600123FB730D4B1B685B0903F01B
:101288000103012B0BD10A4B5B68DAB27B681A7039
:10129800074B1B68064A23F02003136001E0002374
:1012A800FB73FB7B18461437BD465DF8047B70471B
:1012B8000010014080B500AF034B00221A60034BB9
:1012C8001B68984700BF80BD00100140EC0000205B
:1012D80080B500AF034B00221A60034B1B68984788
:1012E80000BF80BD00440140F000002080B500AF81
:1012F800034B00221A60034B1B68984700BF80BD50
:1013080000140140F400002080B500AF0E4B1B68AC
:10131800572B09DC0C4B1B6801330B4A13600B4934
:101328000B48FFF7CBFD0CE00A4B01221A700A4B61
:101338000A4A1A600A4B1B680A4A1360094B1B6861
:10134800984700BF80BD00BF34010020111300087A
:101358000024F4003001002008ED00E000400008FF
:10136800044000082C01002080B58AB000AFFFF7C8
:10137800FBFC0F210420FFF71FFD04210320FFF7CA
:101388001BFD00210020FFF717FD07F120030022B5
:101398001A60C3F80320022387F82130012387F855
:1013A8002230012387F8243007F1180300221A603D
:1013B800C3F8032009237B760223BB7601233B77FE
:1013C8000723BB7707F1100300221A60C3F8032034
:1013D8000A237B740223BB7401233B750723BB7567
:1013E80007F118031846FFF7B9FB07F11003184671
:1013F800FFF7B4FB07F120031846FFF7AFFB3A4AA3
:101408003B1D07CA83E8070000233B6039463B1DA4
:10141800364A1846FFF794FD3448FFF7DBFEFFF71E
:1014280021FD33493348FFF749FD002387F827306A
:101438004FE0314B1B78DBB21A46304B1344184649
:10144800FFF714FF034687F8273097F82730012B5A
:101458003FD12A4B9B78DBB2322B04D101220221E7
:101468000020FFF7B5FAFFF719FD254B5A221A603D
:10147800214B1B78DBB21A46204B9B5CDBB20A2B54
:1014880019D1012202210020FFF7A2FA1D4B1B7877
:10149800DBB2012B04D01B4B01221A70FFF75EFC54
:1014A8001648FFF7B3FB18491048FFF7C1FE124B67
:1014B80000221A7006E0104B1B78DBB20133DAB257
:1014C8000D4B1A700D4B1B7ADBB2312B01D1FFF794
:1014D8001BFF0E4B1B78DBB2002BAAD0002318464B
:1014E8002837BD4680BD00BF3C16000800100140EB
:1014F8001113000800105E5F2A010020F800002088
:101508003401002031010020381600083001002085
:1015180080B400AFFEE780B400AFFEE780B400AF50
:10152800FEE780B400AFFEE780B400AFFEE780B40A
:1015380000AF00BFBD465DF8047B704780B400AFC4
:1015480000BFBD465DF8047B704780B400AF00BFA4
:10155800BD465DF8047B704780B400AF064BD3F8F6
:101568008830054A43F47003C2F8883000BFBD468E
:101578005DF8047B704700BF00ED00E0DFF834D071
:101588000D480E490E4A002302E0D458C4500433D3
:10159800C4188C42F9D30B4A0B4C002301E01360AA
:1015A8000432A242FBD3FFF7D7FF00F011F8FFF790
:1015B800DBFE704700000120000000200000002032
:1015C800581600080000002038010020FEE700003F
:1015D80070B50D4D0D4C641BA4100026A64209D110
:1015E8000B4D0C4C00F018F8641BA4100026A64202
:1015F80005D170BD55F8043B98470136EEE755F81C
:10160800043B98470136F2E75016000850160008C8
:101618005016000854160008F8B500BFF8BC08BCFE
:101628009E467047F8B500BFF8BC08BC9E46704798
:101638006F6B000080250000000000000200000021
:08164800C0EBFF7F0100000070
:04165000BD010008D0
:0416540099010008F0
:040000050800158555
:00000001FF
